{
  "_format": "hh-sol-artifact-1",
  "contractName": "CrowdfundingFactory",
  "sourceName": "contracts/CrowdfundingFactory.sol",
  "abi": [
    {
      "inputs": [],
      "stateMutability": "nonpayable",
      "type": "constructor"
    },
    {
      "inputs": [
        {
          "internalType": "address",
          "name": "owner",
          "type": "address"
        }
      ],
      "name": "OwnableInvalidOwner",
      "type": "error"
    },
    {
      "inputs": [
        {
          "internalType": "address",
          "name": "account",
          "type": "address"
        }
      ],
      "name": "OwnableUnauthorizedAccount",
      "type": "error"
    },
    {
      "inputs": [],
      "name": "ReentrancyGuardReentrantCall",
      "type": "error"
    },
    {
      "anonymous": false,
      "inputs": [
        {
          "indexed": true,
          "internalType": "uint256",
          "name": "campaignId",
          "type": "uint256"
        },
        {
          "indexed": true,
          "internalType": "address",
          "name": "campaignAddress",
          "type": "address"
        },
        {
          "indexed": true,
          "internalType": "address",
          "name": "creator",
          "type": "address"
        },
        {
          "indexed": false,
          "internalType": "uint256",
          "name": "goalAmount",
          "type": "uint256"
        },
        {
          "indexed": false,
          "internalType": "uint256",
          "name": "deadline",
          "type": "uint256"
        }
      ],
      "name": "CampaignCreated",
      "type": "event"
    },
    {
      "anonymous": false,
      "inputs": [
        {
          "indexed": true,
          "internalType": "address",
          "name": "previousOwner",
          "type": "address"
        },
        {
          "indexed": true,
          "internalType": "address",
          "name": "newOwner",
          "type": "address"
        }
      ],
      "name": "OwnershipTransferred",
      "type": "event"
    },
    {
      "anonymous": false,
      "inputs": [
        {
          "indexed": false,
          "internalType": "uint256",
          "name": "oldFee",
          "type": "uint256"
        },
        {
          "indexed": false,
          "internalType": "uint256",
          "name": "newFee",
          "type": "uint256"
        }
      ],
      "name": "PlatformFeeUpdated",
      "type": "event"
    },
    {
      "inputs": [
        {
          "internalType": "uint256",
          "name": "",
          "type": "uint256"
        }
      ],
      "name": "allCampaigns",
      "outputs": [
        {
          "internalType": "address",
          "name": "",
          "type": "address"
        }
      ],
      "stateMutability": "view",
      "type": "function"
    },
    {
      "inputs": [],
      "name": "campaignCount",
      "outputs": [
        {
          "internalType": "uint256",
          "name": "",
          "type": "uint256"
        }
      ],
      "stateMutability": "view",
      "type": "function"
    },
    {
      "inputs": [
        {
          "internalType": "uint256",
          "name": "",
          "type": "uint256"
        }
      ],
      "name": "campaigns",
      "outputs": [
        {
          "internalType": "address",
          "name": "",
          "type": "address"
        }
      ],
      "stateMutability": "view",
      "type": "function"
    },
    {
      "inputs": [
        {
          "internalType": "string",
          "name": "_title",
          "type": "string"
        },
        {
          "internalType": "string",
          "name": "_description",
          "type": "string"
        },
        {
          "internalType": "string",
          "name": "_imageUrl",
          "type": "string"
        },
        {
          "internalType": "uint256",
          "name": "_goalAmount",
          "type": "uint256"
        },
        {
          "internalType": "uint256",
          "name": "_durationInDays",
          "type": "uint256"
        },
        {
          "internalType": "string[]",
          "name": "_milestones",
          "type": "string[]"
        }
      ],
      "name": "createCampaign",
      "outputs": [
        {
          "internalType": "address",
          "name": "",
          "type": "address"
        }
      ],
      "stateMutability": "nonpayable",
      "type": "function"
    },
    {
      "inputs": [
        {
          "internalType": "address",
          "name": "",
          "type": "address"
        },
        {
          "internalType": "uint256",
          "name": "",
          "type": "uint256"
        }
      ],
      "name": "creatorCampaigns",
      "outputs": [
        {
          "internalType": "uint256",
          "name": "",
          "type": "uint256"
        }
      ],
      "stateMutability": "view",
      "type": "function"
    },
    {
      "inputs": [],
      "name": "getAllCampaigns",
      "outputs": [
        {
          "internalType": "address[]",
          "name": "",
          "type": "address[]"
        }
      ],
      "stateMutability": "view",
      "type": "function"
    },
    {
      "inputs": [
        {
          "internalType": "uint256",
          "name": "_campaignId",
          "type": "uint256"
        }
      ],
      "name": "getCampaignDetails",
      "outputs": [
        {
          "internalType": "address",
          "name": "campaignAddress",
          "type": "address"
        },
        {
          "internalType": "address",
          "name": "creator",
          "type": "address"
        },
        {
          "internalType": "string",
          "name": "title",
          "type": "string"
        },
        {
          "internalType": "uint256",
          "name": "goalAmount",
          "type": "uint256"
        },
        {
          "internalType": "uint256",
          "name": "raisedAmount",
          "type": "uint256"
        },
        {
          "internalType": "uint256",
          "name": "deadline",
          "type": "uint256"
        },
        {
          "internalType": "bool",
          "name": "isActive",
          "type": "bool"
        }
      ],
      "stateMutability": "view",
      "type": "function"
    },
    {
      "inputs": [
        {
          "internalType": "address",
          "name": "_creator",
          "type": "address"
        }
      ],
      "name": "getCampaignsByCreator",
      "outputs": [
        {
          "internalType": "uint256[]",
          "name": "",
          "type": "uint256[]"
        }
      ],
      "stateMutability": "view",
      "type": "function"
    },
    {
      "inputs": [],
      "name": "owner",
      "outputs": [
        {
          "internalType": "address",
          "name": "",
          "type": "address"
        }
      ],
      "stateMutability": "view",
      "type": "function"
    },
    {
      "inputs": [],
      "name": "platformFee",
      "outputs": [
        {
          "internalType": "uint256",
          "name": "",
          "type": "uint256"
        }
      ],
      "stateMutability": "view",
      "type": "function"
    },
    {
      "inputs": [],
      "name": "renounceOwnership",
      "outputs": [],
      "stateMutability": "nonpayable",
      "type": "function"
    },
    {
      "inputs": [
        {
          "internalType": "address",
          "name": "newOwner",
          "type": "address"
        }
      ],
      "name": "transferOwnership",
      "outputs": [],
      "stateMutability": "nonpayable",
      "type": "function"
    },
    {
      "inputs": [
        {
          "internalType": "uint256",
          "name": "_newFee",
          "type": "uint256"
        }
      ],
      "name": "updatePlatformFee",
      "outputs": [],
      "stateMutability": "nonpayable",
      "type": "function"
    }
  ],
  "bytecode": "0x608080604052346100885733156100725760008054336001600160a01b03198216811783556040519290916001600160a01b0316907f8be0079c531659141344cd1fd0a4f28419497f9722a3daafe3b4186f6b6457e09080a36001805560fa6003556000600255612e82908161008e8239f35b631e4fbdf760e01b815260006004820152602490fd5b600080fdfe60808060405260043610156200001457600080fd5b60003560e01c908163141961bc1462000cd0575080631ec4a5d5146200085c57806326232a2e146200083c578063715018a614620007df5780637274e30d14620007bf57806386cdf60414620006ef5780638da5cb5b14620006c4578063a509f4d1146200067d578063aa0b598814620005dd578063d5b8d84a146200051f578063d993de6214620001b5578063ddc8af6114620001565763f2fde38b14620000bc57600080fd5b34620001515760203660031901126200015157620000d962000df8565b620000e362000e5b565b6001600160a01b039081169081156200013857600054826bffffffffffffffffffffffff60a01b821617600055167f8be0079c531659141344cd1fd0a4f28419497f9722a3daafe3b4186f6b6457e0600080a3005b604051631e4fbdf760e01b815260006004820152602490fd5b600080fd5b346200015157604036600319011262000151576200017362000df8565b6001600160a01b03166000908152600560205260409020805460243591908210156200015157602091620001a79162000ddf565b90546040519160031b1c8152f35b3462000151576020806003193601126200015157600435600254811015620004da576000526004815260018060a01b0390816040600020541690604051926302d05d3f60e01b84528184600481865afa9384156200036a576000946200049b575b5060405163129e754360e21b815291600083600481875afa9283156200036a5760009362000415575b50604051632636b94560e01b8152928184600481885afa9384156200036a57600094620003e0575b50604051633167b87760e21b8152908282600481895afa9182156200036a57600092620003ab575b506040516329dcb0cf60e01b81529280846004818a5afa9384156200036a5760009462000376575b506040516308bcf8b560e21b81529481866004818b5afa9586156200036a5760009662000321575b5090620003069291604051998a998a52169088015260e0604088015260e087019062000e34565b936060860152608085015260a0840152151560c08301520390f35b90955081818194933d831162000362575b6200033e818362000d04565b810103126200015157519182151583036200015157620003069295909192620002df565b503d62000332565b6040513d6000823e3d90fd5b9080945081813d8311620003a3575b62000391818362000d04565b810103126200015157519288620002b7565b503d62000385565b9091508281813d8311620003d8575b620003c6818362000d04565b8101031262000151575190876200028f565b503d620003ba565b9093508181813d83116200040d575b620003fb818362000d04565b81010312620001515751928662000267565b503d620003ef565b9092503d806000833e6200042a818362000d04565b8101908381830312620001515780519067ffffffffffffffff821162000151570181601f8201121562000151578051620004648162000d27565b9262000474604051948562000d04565b8184528582840101116200015157620004939185808501910162000e0f565b91856200023f565b9093508181813d8311620004d2575b620004b6818362000d04565b8101031262000151575183811681036200015157928462000216565b503d620004aa565b60405162461bcd60e51b815260048101839052601760248201527f43616d706169676e20646f6573206e6f742065786973740000000000000000006044820152606490fd5b34620001515760208060031936011262000151576001600160a01b036200054562000df8565b1660005260058152604060002060405190818382549182815201908192600052846000209060005b86828210620005c8578686620005868288038362000d04565b604051928392818401908285525180915260408401929160005b828110620005b057505050500390f35b835185528695509381019392810192600101620005a0565b8354855290930192600192830192016200056d565b34620001515760203660031901126200015157600435620005fd62000e5b565b6103e88111620006405760407fd347e206f25a89b917fc9482f1a2d294d749baa4dc9bde7fb495ee11fe49164391600354908060035582519182526020820152a1005b60405162461bcd60e51b81526020600482015260156024820152744665652063616e6e6f74206578636565642031302560581b6044820152606490fd5b346200015157602036600319011262000151576004356006548110156200015157620006ab60209162000d91565b905460405160039290921b1c6001600160a01b03168152f35b346200015157600036600319011262000151576000546040516001600160a01b039091168152602090f35b34620001515760003660031901126200015157604051806006548083526020809301809160066000527ff652222313e28459528d920b65115c16c04f3efc82aaedc97be59f3f377c0d3f9060005b86828210620007a1578686620007568288038362000d04565b604051928392818401908285525180915260408401929160005b8281106200078057505050500390f35b83516001600160a01b03168552869550938101939281019260010162000770565b83546001600160a01b0316855290930192600192830192016200073d565b346200015157600036600319011262000151576020600254604051908152f35b34620001515760003660031901126200015157620007fc62000e5b565b600080546001600160a01b0319811682556001600160a01b03167f8be0079c531659141344cd1fd0a4f28419497f9722a3daafe3b4186f6b6457e08280a3005b346200015157600036600319011262000151576020600354604051908152f35b34620001515760c0366003190112620001515767ffffffffffffffff60043581811162000151576200089390369060040162000d44565b906024358181116200015157620008af90369060040162000d44565b6044358281116200015157620008ca90369060040162000d44565b926084359360a43592848411620001515736602385011215620001515783600401359185831162000b89578260051b94604051936200090d602088018662000d04565b845260208401906024829782010190368211620001515760248101925b82841062000ca5575050505060026001541462000c935760026001556064351562000c4e57861580158062000c41575b1562000c095784511562000bd3576201518080890298890414171562000b7357864201421162000b7357600354936040519687611fc481011090611fc48901111762000b895790620009ee8796959493620009d762000a0594611fc462000e898b3933611fc48b0190815261010060208201819052019062000e34565b90611fc4890182036040611fc48b01015262000e34565b90611fc4870182036060611fc48901015262000e34565b916064356080611fc48701015286420160a0611fc48701015260c0611fc486010152611fc48401820360e0611fc48601015251808252602082019160208260051b82010193926000915b83831062000b9f57505050505003906000f080156200036a5760018060a01b038091169060025460005260046020526040600020826bffffffffffffffffffffffff60a01b8254161790553360005260056020526040600020906002549180549068010000000000000000918281101562000b895762000ad59160018201815562000ddf565b81549060031b906000198096831b921b19161790556006549081101562000b895780600162000b08920160065562000d91565b819291549060031b9185831b921b1916179055600254926040519060643582524201602082015282847fd1344736c6f5aed92434818925ffb41a595e2e7e95a63ec40204158b754b068660403394a4821462000b735760016020920160025560018055604051908152f35b634e487b7160e01b600052601160045260246000fd5b634e487b7160e01b600052604160045260246000fd5b91939550919360208062000bc0600193601f19868203018752895162000e34565b9701930193019092869594929362000a4f565b60405162461bcd60e51b815260206004820152600e60248201526d151a5d1b19481c995c5d5a5c995960921b6044820152606490fd5b60405162461bcd60e51b815260206004820152601060248201526f24b73b30b634b210323ab930ba34b7b760811b6044820152606490fd5b5061016d8811156200095a565b60405162461bcd60e51b815260206004820152601b60248201527f476f616c206d7573742062652067726561746572207468616e203000000000006044820152606490fd5b604051633ee5aeb560e01b8152600490fd5b8984351162000151576020809162000cc4366024883587010162000d44565b8152019301926200092a565b34620001515760203660031901126200015157600480356000908152602091825260409020546001600160a01b0316825290f35b90601f8019910116810190811067ffffffffffffffff82111762000b8957604052565b67ffffffffffffffff811162000b8957601f01601f191660200190565b81601f82011215620001515780359062000d5e8262000d27565b9262000d6e604051948562000d04565b828452602083830101116200015157816000926020809301838601378301015290565b60065481101562000dc95760066000527ff652222313e28459528d920b65115c16c04f3efc82aaedc97be59f3f377c0d3f0190600090565b634e487b7160e01b600052603260045260246000fd5b805482101562000dc95760005260206000200190600090565b600435906001600160a01b03821682036200015157565b60005b83811062000e235750506000910152565b818101518382015260200162000e12565b9060209162000e4f8151809281855285808601910162000e0f565b601f01601f1916010190565b6000546001600160a01b0316330362000e7057565b60405163118cdaa760e01b8152336004820152602490fdfe608060405234620008205762001fc4803803806200001d8162000825565b92833981019061010081830312620008205780516001600160a01b0381168103620008205760208201516001600160401b038111620008205783620000649184016200084b565b60408301516001600160401b038111620008205784620000869185016200084b565b60608401516001600160401b038111620008205785620000a89186016200084b565b9060808501519260a08601519460c08701519660e08101519060018060401b0382116200082057019780601f8a01121562000820578851986001600160401b038a1162000484578960051b906020806200010481850162000825565b809d8152019282010191838311620008205760208201905b838210620007ef575050600160008190558054610100600160a81b03191660089590951b610100600160a81b031694909417909355505081519190506001600160401b038211620004845760025490600182811c92168015620007e4575b6020831014620004635781601f84931162000780575b50602090601f83116001146200070257600092620006f6575b50508160011b916000199060031b1c1916176002555b8051906001600160401b038211620004845760035490600182811c92168015620006eb575b6020831014620004635781601f84931162000676575b50602090601f8311600114620005e757600092620005db575b50508160011b916000199060031b1c1916176003555b8051906001600160401b038211620004845760045490600182811c92168015620005d0575b6020831014620004635781601f8493116200055b575b50602090601f8311600114620004cc57600092620004c0575b50508160011b916000199060031b1c1916176004555b600555600755600855600162ffffff19600954161760095560006006556000600c5560005b8151811015620004b05760208160051b83010151600a805490680100000000000000008210156200048457600182018082558210156200049a5760009081526020902082519101916001600160401b0382116200048457825490600182811c9216801562000479575b6020831014620004635781601f8493116200040b575b50602090601f83116001146200039a576000926200038e575b50508160011b916000199060031b1c19161790555b60001981146200037857600101620002b8565b634e487b7160e01b600052601160045260246000fd5b01519050388062000350565b9250836000526020600020906000935b601f1984168510620003ef576001945083601f19811610620003d5575b505050811b01905562000365565b015160001960f88460031b161c19169055388080620003c7565b81810151835560209485019460019093019290910190620003aa565b909150836000526020600020601f840160051c8101916020851062000458575b90601f859493920160051c01905b81811062000448575062000337565b6000815584935060010162000439565b90915081906200042b565b634e487b7160e01b600052602260045260246000fd5b91607f169162000321565b634e487b7160e01b600052604160045260246000fd5b634e487b7160e01b600052603260045260246000fd5b6040516116e69081620008be8239f35b0151905038806200027d565b6004600090815293507f8a35acfbc15ff81a39ae7d344fd709f28e8600b4aa8c65c6b64bfe7fe36bd19b91905b601f19841685106200053f576001945083601f1981161062000525575b505050811b0160045562000293565b015160001960f88460031b161c1916905538808062000516565b81810151835560209485019460019093019290910190620004f9565b60046000529091507f8a35acfbc15ff81a39ae7d344fd709f28e8600b4aa8c65c6b64bfe7fe36bd19b601f840160051c81019160208510620005c5575b90601f859493920160051c01905b818110620005b5575062000264565b60008155849350600101620005a6565b909150819062000598565b91607f16916200024e565b01519050388062000213565b6003600090815293507fc2575a0e9e593c00f959f8c92f12db2869c3395a3b0502d05e2516446f71f85b91905b601f19841685106200065a576001945083601f1981161062000640575b505050811b0160035562000229565b015160001960f88460031b161c1916905538808062000631565b8181015183556020948501946001909301929091019062000614565b60036000529091507fc2575a0e9e593c00f959f8c92f12db2869c3395a3b0502d05e2516446f71f85b601f840160051c81019160208510620006e0575b90601f859493920160051c01905b818110620006d05750620001fa565b60008155849350600101620006c1565b9091508190620006b3565b91607f1691620001e4565b015190503880620001a9565b60026000908152935060008051602062001fa483398151915291905b601f198416851062000764576001945083601f198116106200074a575b505050811b01600255620001bf565b015160001960f88460031b161c191690553880806200073b565b818101518355602094850194600190930192909101906200071e565b600260005290915060008051602062001fa4833981519152601f840160051c81019160208510620007d9575b90601f859493920160051c01905b818110620007c9575062000190565b60008155849350600101620007ba565b9091508190620007ac565b91607f16916200017a565b81516001600160401b038111620008205760209162000814878480948801016200084b565b8152019101906200011c565b600080fd5b6040519190601f01601f191682016001600160401b038111838210176200048457604052565b919080601f84011215620008205782516001600160401b038111620004845760209062000881601f8201601f1916830162000825565b92818452828287010111620008205760005b818110620008a957508260009394955001015290565b85810183015184820184015282016200089356fe608060408181526004918236101561001657600080fd5b600092833560e01c91826302d05d3f1461135e575081631d0d35f51461131f57816321eff7fc14610faa57816322f3e2d4146112fb57816324600fc3146110fc57816326232a2e146110dd5781632636b945146110be57816329dcb0cf1461109f5781633cb5d1001461105e5781633f4ba83a14610fe457816342e94c9014610faa5781634757ace414610f7d5781634a79d50c14610ed35781635c6a024614610eac5781635c975abb14610e88578163629e4ed014610d855781637284e41614610cb25781638456cb5914610c4b578163852ea20314610a57578163aba8315014610970578163af157c19146108ab578163b03048131461088c578163b557478a1461084d578163c59d48471461078d578163c59ee1dc1461076e578163d5cef133146105bd578163d7bb99ba14610371578163e35d66a814610200578163e89e4ed614610198575063ec4cd0cf1461016f57600080fd5b3461019457816003193601126101945760209060ff60095460081c1690519015158152f35b5080fd5b8284346101fd5760203660031901126101fd578235600a54811015610194576101c0906113d3565b9390936101eb576101e7836101d48661147c565b9051918291602083526020830190611522565b0390f35b634e487b7160e01b8252819052602490fd5b80fd5b91905034610365576020908160031936011261036d5782359267ffffffffffffffff841161036957366023850112156103695784848201359461024286611562565b9561024f85519788611444565b808752366024828401011161036557806024879301838901378601015261028460018060a01b0360015460081c1633146115e2565b6009549060ff821615610322576007544210156102df575060ff1916600955518181527fea9a565b44f9776cc344f5ac85f221d56934c1dc2f0f0e64e3d1f09371fef6c592909182916102d991830190611522565b0390a180f35b825162461bcd60e51b8152908101849052601c60248201527f43616e6e6f742063616e63656c20616674657220646561646c696e65000000006044820152606490fd5b825162461bcd60e51b8152908101849052601960248201527f43616d706169676e20616c726561647920696e616374697665000000000000006044820152606490fd5b8280fd5b8480fd5b8380fd5b9050826003193601126103655760ff60095416156105825760075442101561054b5761039b6115bf565b6103a36115a1565b34156104fd5760018060a01b03908160015460081c1633146104ba57338452600f60205260ff838520541615610451575b5050600d6020528082206103e934825461157e565b90556103f73460065461157e565b90816006557fd2dff949d20e874cc6ba1dcefb840fb8cf6000a4197bfb69accfea5a32443ff58151913483528360208401523392a2600554111561043d575b6001815580f35b61010061ff00196009541617600955610436565b600e5490680100000000000000008210156104a757508060016104779201600e55611386565b819291549060031b9133831b921b1916179055338252600f602052808220600160ff1982541617905538806103d4565b634e487b7160e01b855260419052602484fd5b606490602084519162461bcd60e51b8352820152601960248201527f43726561746f722063616e6e6f7420636f6e74726962757465000000000000006044820152fd5b6020608492519162461bcd60e51b8352820152602360248201527f436f6e747269627574696f6e206d75737420626520677265617465722074686160448201526206e20360ec1b6064820152fd5b6020606492519162461bcd60e51b8352820152601260248201527110d85b5c185a59db881a185cc8195b99195960721b6044820152fd5b6020606492519162461bcd60e51b8352820152601660248201527543616d706169676e206973206e6f742061637469766560501b6044820152fd5b919050346103655782600319360112610365576105d86115bf565b6105e660075442101561162e565b60ff60095460081c1661072b57338352602090600d825280842054156106f2573384526010825260ff81852054166106b857338452600d8252808420549260108352818520600160ff198254161790558480808087335af1610646611680565b501561067e5750907fa171b6942063c6f2800ce40a780edce37baa2b618571b11eedd1e69e626e7d7691519283523392a26001815580f35b82606492519162461bcd60e51b835282015260166024820152751499599d5b99081d1c985b9cd9995c8819985a5b195960521b6044820152fd5b5162461bcd60e51b81529182015260166024820152751499599d5b9908185b1c9958591e4818db185a5b595960521b604482015260649150fd5b5162461bcd60e51b8152918201526015602482015274139bc818dbdb9d1c9a589d5d1a5bdb88199bdd5b99605a1b604482015260649150fd5b906020606492519162461bcd60e51b8352820152601760248201527f43616d706169676e20776173207375636365737366756c0000000000000000006044820152fd5b5050346101945781600319360112610194576020906006549051908152f35b8284346101fd57806003193601126101fd5780600754804210610835575b5060055480158381156107e0575b505060a0945060065493600e54918151958652602086015284015260608301526080820152f35b90919350600654916064830292808404606414901517156108225761080f575060a094508290049185806107b9565b634e487b7160e01b815260128652602490fd5b634e487b7160e01b825260118752602482fd5b620151809150610846904290611673565b04846107ab565b90503461036557602036600319011261036557356001600160a01b0381169081900361036557818360ff92602095526010855220541690519015158152f35b505034610194578160031936011261019457602090600c549051908152f35b8284346101fd57806003193601126101fd57908051918290600e549182855260208095018093600e84527fbb7b4a454dc3493923482f07822329ed19e8244eff582cc204f8554c3620c3fd90845b818110610953575050508161090f910382611444565b83519485948186019282875251809352850193925b82811061093357505050500390f35b83516001600160a01b031685528695509381019392810192600101610924565b82546001600160a01b0316845292880192600192830192016108f9565b91905034610365578260031936011261036557805191838154906109938261140a565b80865292600192808416908115610a2c57506001146109d0575b6101e786866109be828b0383611444565b51918291602083526020830190611522565b815294507f8a35acfbc15ff81a39ae7d344fd709f28e8600b4aa8c65c6b64bfe7fe36bd19b5b828610610a14575050506109be8260206101e79582010194386109ad565b805460208787018101919091529095019481016109f6565b90506101e79750869350602092506109be94915060ff191682840152151560051b82010194386109ad565b9050346103655760208060031936011261036d57813592600192610a8860018060a01b03855460081c1633146115e2565b600a54851015610c1657848652600b835260ff8287205416610bd557848652600b83528186209060ff1991858382541617905584860190818711610bc25750600c55610ad3856113d3565b509282519481865287948054610ae88161140a565b9485858a01528382169182600014610b85575050600114610b2f575b88887f596b9dbf4a34a065b97919d952a438e69135615bbbe14d29df893d0ee0d78e488989038aa280f35b885281882093945087935b838510610b725750505050820101817f596b9dbf4a34a065b97919d952a438e69135615bbbe14d29df893d0ee0d78e48388080610b04565b8054878601870152938201938101610b3a565b168689015250505050151560051b8301019050817f596b9dbf4a34a065b97919d952a438e69135615bbbe14d29df893d0ee0d78e48388080610b04565b634e487b7160e01b885260119052602487fd5b82606492519162461bcd60e51b8352820152601b60248201527f4d696c6573746f6e6520616c726561647920636f6d706c6574656400000000006044820152fd5b82606492519162461bcd60e51b83528201526011602482015270496e76616c6964206d696c6573746f6e6560781b6044820152fd5b50503461019457816003193601126101945760207f62e78cea01bee320cd4e420270b5ea74000d11b0c9f74754ebdbfc544b05a2589160018054610c9a828060a01b038260081c1633146115e2565b610ca26115a1565b60ff19161760015551338152a180f35b50503461019457816003193601126101945780519082600354610cd48161140a565b80855291600191808316908115610d5d5750600114610d00575b5050506109be826101e7940383611444565b9450600385527fc2575a0e9e593c00f959f8c92f12db2869c3395a3b0502d05e2516446f71f85b5b828610610d45575050506109be8260206101e79582010194610cee565b80546020878701810191909152909501948101610d28565b6101e79750869350602092506109be94915060ff191682840152151560051b82010194610cee565b83915034610194578160031936011261019457600a549067ffffffffffffffff8211610e755750825191602092610dc1848460051b0182611444565b828152600a825283810192827fc65a7bb8d6351c1cf70c95a316cc6a92839c986682d98bc35f958f4883f9d2a8855b838310610e5157505050508451938085019181865251809252858501958260051b8601019392955b828710610e255785850386f35b909192938280610e41600193603f198a82030186528851611522565b9601920196019592919092610e18565b6001888192610e63859b98999b61147c565b81520192019201919096949396610df0565b634e487b7160e01b835260419052602482fd5b50503461019457816003193601126101945760209060ff6001541690519015158152f35b50503461019457816003193601126101945760209060ff60095460101c1690519015158152f35b50503461019457816003193601126101945780519082600254610ef58161140a565b80855291600191808316908115610d5d5750600114610f20575050506109be826101e7940383611444565b9450600285527f405787fa12a823e0f2b7631cc41b3ba8828b3321ca811111fa75cd3aa3bb5ace5b828610610f65575050506109be8260206101e79582010194610cee565b80546020878701810191909152909501948101610f48565b905034610365576020366003190112610365578160209360ff92358152600b855220541690519015158152f35b90503461036557602036600319011261036557356001600160a01b038116908190036103655782829160209452600d845220549051908152f35b9050346103655782600319360112610365576001549061101233600884901c6001600160a01b0316146115e2565b60ff821615611050575060ff1916600155513381527f5db9ee0a495bf2e6ff9c91a7834c1ba4fdd244a5e8aa4e537bd38aeae4b073aa90602090a180f35b8251638dfc202b60e01b8152fd5b905034610365576020366003190112610365573591600e548310156101fd5750611089602092611386565b905491519160018060a01b039160031b1c168152f35b5050346101945781600319360112610194576020906007549051908152f35b5050346101945781600319360112610194576020906005549051908152f35b5050346101945781600319360112610194576020906008549051908152f35b9190503461036557826003193601126103655760018060a01b03916111298360015460081c1633146115e2565b6111316115bf565b61113f60075442101561162e565b6009549260ff8460081c16156112b85760ff8460101c1661127d576006549384156112435762ff00ff1916620100001760095560085484810290858204036112305761271061119091048095611673565b9185808080868660015460081c165af16111a8611680565b50156111ed5750907ffbc3a599b784fe88772fc5abcc07223f64ca0b13acc341f4fb1e46bef0510eb4929160015460081c169382519182526020820152a26001815580f35b606490602085519162461bcd60e51b8352820152601a60248201527f5472616e7366657220746f2063726561746f72206661696c65640000000000006044820152fd5b634e487b7160e01b865260118352602486fd5b835162461bcd60e51b815260208185015260146024820152734e6f2066756e647320746f20776974686472617760601b6044820152606490fd5b506020606492519162461bcd60e51b83528201526015602482015274119d5b991cc8185b1c9958591e4818db185a5b5959605a1b6044820152fd5b506020606492519162461bcd60e51b8352820152601a60248201527f43616d706169676e20646964206e6f74206d65657420676f616c0000000000006044820152fd5b50503461019457816003193601126101945760209060ff6009541690519015158152f35b90503461036557602036600319011261036557356001600160a01b0381169081900361036557818360ff9260209552600f855220541690519015158152f35b84903461019457816003193601126101945760015460081c6001600160a01b03168152602090f35b600e548110156113bd57600e6000527fbb7b4a454dc3493923482f07822329ed19e8244eff582cc204f8554c3620c3fd0190600090565b634e487b7160e01b600052603260045260246000fd5b600a548110156113bd57600a6000527fc65a7bb8d6351c1cf70c95a316cc6a92839c986682d98bc35f958f4883f9d2a80190600090565b90600182811c9216801561143a575b602083101461142457565b634e487b7160e01b600052602260045260246000fd5b91607f1691611419565b90601f8019910116810190811067ffffffffffffffff82111761146657604052565b634e487b7160e01b600052604160045260246000fd5b90604051918260008254926114908461140a565b9081845260019485811690816000146114ff57506001146114bc575b50506114ba92500383611444565b565b9093915060005260209081600020936000915b8183106114e75750506114ba935082010138806114ac565b855488840185015294850194879450918301916114cf565b9150506114ba94506020925060ff191682840152151560051b82010138806114ac565b919082519283825260005b84811061154e575050826000602080949584010152601f8019910116010190565b60208183018101518483018201520161152d565b67ffffffffffffffff811161146657601f01601f191660200190565b9190820180921161158b57565b634e487b7160e01b600052601160045260246000fd5b60ff600154166115ad57565b60405163d93c066560e01b8152600490fd5b6002600054146115d0576002600055565b604051633ee5aeb560e01b8152600490fd5b156115e957565b60405162461bcd60e51b815260206004820152601a60248201527f4f6e6c792063726561746f722063616e2063616c6c20746869730000000000006044820152606490fd5b1561163557565b60405162461bcd60e51b815260206004820152601660248201527543616d706169676e207374696c6c206f6e676f696e6760501b6044820152606490fd5b9190820391821161158b57565b3d156116ab573d9061169182611562565b9161169f6040519384611444565b82523d6000602084013e565b60609056fea26469706673582212208cfc0a88374a3d23c2f5613815865c2e7ee22bb12d22ad46ebee7bb19ba94e3b64736f6c63430008140033405787fa12a823e0f2b7631cc41b3ba8828b3321ca811111fa75cd3aa3bb5acea264697066735822122059f54daf8ec72dbb93c5a0e4f9e2a45f34e5762ea2e1d43a8f695518b54e2af264736f6c63430008140033",
  "linkReferences": {},
  "deployedLinkReferences": {}
}