{
  "_format": "hh-sol-artifact-1",
  "contractName": "Campaign",
  "sourceName": "contracts/Campaign.sol",
  "abi": [
    {
      "inputs": [
        {
          "internalType": "address",
          "name": "_creator",
          "type": "address"
        },
        {
          "internalType": "string",
          "name": "_title",
          "type": "string"
        },
        {
          "internalType": "string",
          "name": "_description",
          "type": "string"
        },
        {
          "internalType": "string",
          "name": "_imageUrl",
          "type": "string"
        },
        {
          "internalType": "uint256",
          "name": "_goalAmount",
          "type": "uint256"
        },
        {
          "internalType": "uint256",
          "name": "_deadline",
          "type": "uint256"
        },
        {
          "internalType": "uint256",
          "name": "_platformFee",
          "type": "uint256"
        },
        {
          "internalType": "string[]",
          "name": "_milestones",
          "type": "string[]"
        }
      ],
      "stateMutability": "nonpayable",
      "type": "constructor"
    },
    {
      "inputs": [],
      "name": "EnforcedPause",
      "type": "error"
    },
    {
      "inputs": [],
      "name": "ExpectedPause",
      "type": "error"
    },
    {
      "inputs": [],
      "name": "ReentrancyGuardReentrantCall",
      "type": "error"
    },
    {
      "anonymous": false,
      "inputs": [
        {
          "indexed": false,
          "internalType": "string",
          "name": "reason",
          "type": "string"
        }
      ],
      "name": "CampaignCancelled",
      "type": "event"
    },
    {
      "anonymous": false,
      "inputs": [
        {
          "indexed": true,
          "internalType": "address",
          "name": "contributor",
          "type": "address"
        },
        {
          "indexed": false,
          "internalType": "uint256",
          "name": "amount",
          "type": "uint256"
        },
        {
          "indexed": false,
          "internalType": "uint256",
          "name": "totalRaised",
          "type": "uint256"
        }
      ],
      "name": "ContributionReceived",
      "type": "event"
    },
    {
      "anonymous": false,
      "inputs": [
        {
          "indexed": true,
          "internalType": "address",
          "name": "creator",
          "type": "address"
        },
        {
          "indexed": false,
          "internalType": "uint256",
          "name": "amount",
          "type": "uint256"
        },
        {
          "indexed": false,
          "internalType": "uint256",
          "name": "platformFeeAmount",
          "type": "uint256"
        }
      ],
      "name": "FundsWithdrawn",
      "type": "event"
    },
    {
      "anonymous": false,
      "inputs": [
        {
          "indexed": true,
          "internalType": "uint256",
          "name": "milestoneIndex",
          "type": "uint256"
        },
        {
          "indexed": false,
          "internalType": "string",
          "name": "milestone",
          "type": "string"
        }
      ],
      "name": "MilestoneCompleted",
      "type": "event"
    },
    {
      "anonymous": false,
      "inputs": [
        {
          "indexed": false,
          "internalType": "address",
          "name": "account",
          "type": "address"
        }
      ],
      "name": "Paused",
      "type": "event"
    },
    {
      "anonymous": false,
      "inputs": [
        {
          "indexed": true,
          "internalType": "address",
          "name": "contributor",
          "type": "address"
        },
        {
          "indexed": false,
          "internalType": "uint256",
          "name": "amount",
          "type": "uint256"
        }
      ],
      "name": "RefundIssued",
      "type": "event"
    },
    {
      "anonymous": false,
      "inputs": [
        {
          "indexed": false,
          "internalType": "address",
          "name": "account",
          "type": "address"
        }
      ],
      "name": "Unpaused",
      "type": "event"
    },
    {
      "inputs": [
        {
          "internalType": "string",
          "name": "_reason",
          "type": "string"
        }
      ],
      "name": "cancelCampaign",
      "outputs": [],
      "stateMutability": "nonpayable",
      "type": "function"
    },
    {
      "inputs": [
        {
          "internalType": "uint256",
          "name": "_milestoneIndex",
          "type": "uint256"
        }
      ],
      "name": "completeMilestone",
      "outputs": [],
      "stateMutability": "nonpayable",
      "type": "function"
    },
    {
      "inputs": [],
      "name": "contribute",
      "outputs": [],
      "stateMutability": "payable",
      "type": "function"
    },
    {
      "inputs": [
        {
          "internalType": "address",
          "name": "",
          "type": "address"
        }
      ],
      "name": "contributions",
      "outputs": [
        {
          "internalType": "uint256",
          "name": "",
          "type": "uint256"
        }
      ],
      "stateMutability": "view",
      "type": "function"
    },
    {
      "inputs": [
        {
          "internalType": "uint256",
          "name": "",
          "type": "uint256"
        }
      ],
      "name": "contributors",
      "outputs": [
        {
          "internalType": "address",
          "name": "",
          "type": "address"
        }
      ],
      "stateMutability": "view",
      "type": "function"
    },
    {
      "inputs": [],
      "name": "creator",
      "outputs": [
        {
          "internalType": "address",
          "name": "",
          "type": "address"
        }
      ],
      "stateMutability": "view",
      "type": "function"
    },
    {
      "inputs": [],
      "name": "currentMilestone",
      "outputs": [
        {
          "internalType": "uint256",
          "name": "",
          "type": "uint256"
        }
      ],
      "stateMutability": "view",
      "type": "function"
    },
    {
      "inputs": [],
      "name": "deadline",
      "outputs": [
        {
          "internalType": "uint256",
          "name": "",
          "type": "uint256"
        }
      ],
      "stateMutability": "view",
      "type": "function"
    },
    {
      "inputs": [],
      "name": "description",
      "outputs": [
        {
          "internalType": "string",
          "name": "",
          "type": "string"
        }
      ],
      "stateMutability": "view",
      "type": "function"
    },
    {
      "inputs": [],
      "name": "fundsClaimed",
      "outputs": [
        {
          "internalType": "bool",
          "name": "",
          "type": "bool"
        }
      ],
      "stateMutability": "view",
      "type": "function"
    },
    {
      "inputs": [
        {
          "internalType": "address",
          "name": "_contributor",
          "type": "address"
        }
      ],
      "name": "getContribution",
      "outputs": [
        {
          "internalType": "uint256",
          "name": "",
          "type": "uint256"
        }
      ],
      "stateMutability": "view",
      "type": "function"
    },
    {
      "inputs": [],
      "name": "getContributors",
      "outputs": [
        {
          "internalType": "address[]",
          "name": "",
          "type": "address[]"
        }
      ],
      "stateMutability": "view",
      "type": "function"
    },
    {
      "inputs": [],
      "name": "getMilestones",
      "outputs": [
        {
          "internalType": "string[]",
          "name": "",
          "type": "string[]"
        }
      ],
      "stateMutability": "view",
      "type": "function"
    },
    {
      "inputs": [],
      "name": "getStats",
      "outputs": [
        {
          "internalType": "uint256",
          "name": "_raisedAmount",
          "type": "uint256"
        },
        {
          "internalType": "uint256",
          "name": "_goalAmount",
          "type": "uint256"
        },
        {
          "internalType": "uint256",
          "name": "_contributorCount",
          "type": "uint256"
        },
        {
          "internalType": "uint256",
          "name": "_daysLeft",
          "type": "uint256"
        },
        {
          "internalType": "uint256",
          "name": "_percentageFunded",
          "type": "uint256"
        }
      ],
      "stateMutability": "view",
      "type": "function"
    },
    {
      "inputs": [],
      "name": "goalAmount",
      "outputs": [
        {
          "internalType": "uint256",
          "name": "",
          "type": "uint256"
        }
      ],
      "stateMutability": "view",
      "type": "function"
    },
    {
      "inputs": [],
      "name": "imageUrl",
      "outputs": [
        {
          "internalType": "string",
          "name": "",
          "type": "string"
        }
      ],
      "stateMutability": "view",
      "type": "function"
    },
    {
      "inputs": [],
      "name": "isActive",
      "outputs": [
        {
          "internalType": "bool",
          "name": "",
          "type": "bool"
        }
      ],
      "stateMutability": "view",
      "type": "function"
    },
    {
      "inputs": [
        {
          "internalType": "address",
          "name": "",
          "type": "address"
        }
      ],
      "name": "isContributor",
      "outputs": [
        {
          "internalType": "bool",
          "name": "",
          "type": "bool"
        }
      ],
      "stateMutability": "view",
      "type": "function"
    },
    {
      "inputs": [],
      "name": "isSuccessful",
      "outputs": [
        {
          "internalType": "bool",
          "name": "",
          "type": "bool"
        }
      ],
      "stateMutability": "view",
      "type": "function"
    },
    {
      "inputs": [
        {
          "internalType": "uint256",
          "name": "",
          "type": "uint256"
        }
      ],
      "name": "milestoneCompleted",
      "outputs": [
        {
          "internalType": "bool",
          "name": "",
          "type": "bool"
        }
      ],
      "stateMutability": "view",
      "type": "function"
    },
    {
      "inputs": [
        {
          "internalType": "uint256",
          "name": "",
          "type": "uint256"
        }
      ],
      "name": "milestones",
      "outputs": [
        {
          "internalType": "string",
          "name": "",
          "type": "string"
        }
      ],
      "stateMutability": "view",
      "type": "function"
    },
    {
      "inputs": [],
      "name": "pause",
      "outputs": [],
      "stateMutability": "nonpayable",
      "type": "function"
    },
    {
      "inputs": [],
      "name": "paused",
      "outputs": [
        {
          "internalType": "bool",
          "name": "",
          "type": "bool"
        }
      ],
      "stateMutability": "view",
      "type": "function"
    },
    {
      "inputs": [],
      "name": "platformFee",
      "outputs": [
        {
          "internalType": "uint256",
          "name": "",
          "type": "uint256"
        }
      ],
      "stateMutability": "view",
      "type": "function"
    },
    {
      "inputs": [],
      "name": "raisedAmount",
      "outputs": [
        {
          "internalType": "uint256",
          "name": "",
          "type": "uint256"
        }
      ],
      "stateMutability": "view",
      "type": "function"
    },
    {
      "inputs": [
        {
          "internalType": "address",
          "name": "",
          "type": "address"
        }
      ],
      "name": "refundClaimed",
      "outputs": [
        {
          "internalType": "bool",
          "name": "",
          "type": "bool"
        }
      ],
      "stateMutability": "view",
      "type": "function"
    },
    {
      "inputs": [],
      "name": "requestRefund",
      "outputs": [],
      "stateMutability": "nonpayable",
      "type": "function"
    },
    {
      "inputs": [],
      "name": "title",
      "outputs": [
        {
          "internalType": "string",
          "name": "",
          "type": "string"
        }
      ],
      "stateMutability": "view",
      "type": "function"
    },
    {
      "inputs": [],
      "name": "unpause",
      "outputs": [],
      "stateMutability": "nonpayable",
      "type": "function"
    },
    {
      "inputs": [],
      "name": "withdrawFunds",
      "outputs": [],
      "stateMutability": "nonpayable",
      "type": "function"
    }
  ],
  "bytecode": "0x608060405234620008205762001fc4803803806200001d8162000825565b92833981019061010081830312620008205780516001600160a01b0381168103620008205760208201516001600160401b038111620008205783620000649184016200084b565b60408301516001600160401b038111620008205784620000869185016200084b565b60608401516001600160401b038111620008205785620000a89186016200084b565b9060808501519260a08601519460c08701519660e08101519060018060401b0382116200082057019780601f8a01121562000820578851986001600160401b038a1162000484578960051b906020806200010481850162000825565b809d8152019282010191838311620008205760208201905b838210620007ef575050600160008190558054610100600160a81b03191660089590951b610100600160a81b031694909417909355505081519190506001600160401b038211620004845760025490600182811c92168015620007e4575b6020831014620004635781601f84931162000780575b50602090601f83116001146200070257600092620006f6575b50508160011b916000199060031b1c1916176002555b8051906001600160401b038211620004845760035490600182811c92168015620006eb575b6020831014620004635781601f84931162000676575b50602090601f8311600114620005e757600092620005db575b50508160011b916000199060031b1c1916176003555b8051906001600160401b038211620004845760045490600182811c92168015620005d0575b6020831014620004635781601f8493116200055b575b50602090601f8311600114620004cc57600092620004c0575b50508160011b916000199060031b1c1916176004555b600555600755600855600162ffffff19600954161760095560006006556000600c5560005b8151811015620004b05760208160051b83010151600a805490680100000000000000008210156200048457600182018082558210156200049a5760009081526020902082519101916001600160401b0382116200048457825490600182811c9216801562000479575b6020831014620004635781601f8493116200040b575b50602090601f83116001146200039a576000926200038e575b50508160011b916000199060031b1c19161790555b60001981146200037857600101620002b8565b634e487b7160e01b600052601160045260246000fd5b01519050388062000350565b9250836000526020600020906000935b601f1984168510620003ef576001945083601f19811610620003d5575b505050811b01905562000365565b015160001960f88460031b161c19169055388080620003c7565b81810151835560209485019460019093019290910190620003aa565b909150836000526020600020601f840160051c8101916020851062000458575b90601f859493920160051c01905b81811062000448575062000337565b6000815584935060010162000439565b90915081906200042b565b634e487b7160e01b600052602260045260246000fd5b91607f169162000321565b634e487b7160e01b600052604160045260246000fd5b634e487b7160e01b600052603260045260246000fd5b6040516116e69081620008be8239f35b0151905038806200027d565b6004600090815293507f8a35acfbc15ff81a39ae7d344fd709f28e8600b4aa8c65c6b64bfe7fe36bd19b91905b601f19841685106200053f576001945083601f1981161062000525575b505050811b0160045562000293565b015160001960f88460031b161c1916905538808062000516565b81810151835560209485019460019093019290910190620004f9565b60046000529091507f8a35acfbc15ff81a39ae7d344fd709f28e8600b4aa8c65c6b64bfe7fe36bd19b601f840160051c81019160208510620005c5575b90601f859493920160051c01905b818110620005b5575062000264565b60008155849350600101620005a6565b909150819062000598565b91607f16916200024e565b01519050388062000213565b6003600090815293507fc2575a0e9e593c00f959f8c92f12db2869c3395a3b0502d05e2516446f71f85b91905b601f19841685106200065a576001945083601f1981161062000640575b505050811b0160035562000229565b015160001960f88460031b161c1916905538808062000631565b8181015183556020948501946001909301929091019062000614565b60036000529091507fc2575a0e9e593c00f959f8c92f12db2869c3395a3b0502d05e2516446f71f85b601f840160051c81019160208510620006e0575b90601f859493920160051c01905b818110620006d05750620001fa565b60008155849350600101620006c1565b9091508190620006b3565b91607f1691620001e4565b015190503880620001a9565b60026000908152935060008051602062001fa483398151915291905b601f198416851062000764576001945083601f198116106200074a575b505050811b01600255620001bf565b015160001960f88460031b161c191690553880806200073b565b818101518355602094850194600190930192909101906200071e565b600260005290915060008051602062001fa4833981519152601f840160051c81019160208510620007d9575b90601f859493920160051c01905b818110620007c9575062000190565b60008155849350600101620007ba565b9091508190620007ac565b91607f16916200017a565b81516001600160401b038111620008205760209162000814878480948801016200084b565b8152019101906200011c565b600080fd5b6040519190601f01601f191682016001600160401b038111838210176200048457604052565b919080601f84011215620008205782516001600160401b038111620004845760209062000881601f8201601f1916830162000825565b92818452828287010111620008205760005b818110620008a957508260009394955001015290565b85810183015184820184015282016200089356fe608060408181526004918236101561001657600080fd5b600092833560e01c91826302d05d3f1461135e575081631d0d35f51461131f57816321eff7fc14610faa57816322f3e2d4146112fb57816324600fc3146110fc57816326232a2e146110dd5781632636b945146110be57816329dcb0cf1461109f5781633cb5d1001461105e5781633f4ba83a14610fe457816342e94c9014610faa5781634757ace414610f7d5781634a79d50c14610ed35781635c6a024614610eac5781635c975abb14610e88578163629e4ed014610d855781637284e41614610cb25781638456cb5914610c4b578163852ea20314610a57578163aba8315014610970578163af157c19146108ab578163b03048131461088c578163b557478a1461084d578163c59d48471461078d578163c59ee1dc1461076e578163d5cef133146105bd578163d7bb99ba14610371578163e35d66a814610200578163e89e4ed614610198575063ec4cd0cf1461016f57600080fd5b3461019457816003193601126101945760209060ff60095460081c1690519015158152f35b5080fd5b8284346101fd5760203660031901126101fd578235600a54811015610194576101c0906113d3565b9390936101eb576101e7836101d48661147c565b9051918291602083526020830190611522565b0390f35b634e487b7160e01b8252819052602490fd5b80fd5b91905034610365576020908160031936011261036d5782359267ffffffffffffffff841161036957366023850112156103695784848201359461024286611562565b9561024f85519788611444565b808752366024828401011161036557806024879301838901378601015261028460018060a01b0360015460081c1633146115e2565b6009549060ff821615610322576007544210156102df575060ff1916600955518181527fea9a565b44f9776cc344f5ac85f221d56934c1dc2f0f0e64e3d1f09371fef6c592909182916102d991830190611522565b0390a180f35b825162461bcd60e51b8152908101849052601c60248201527f43616e6e6f742063616e63656c20616674657220646561646c696e65000000006044820152606490fd5b825162461bcd60e51b8152908101849052601960248201527f43616d706169676e20616c726561647920696e616374697665000000000000006044820152606490fd5b8280fd5b8480fd5b8380fd5b9050826003193601126103655760ff60095416156105825760075442101561054b5761039b6115bf565b6103a36115a1565b34156104fd5760018060a01b03908160015460081c1633146104ba57338452600f60205260ff838520541615610451575b5050600d6020528082206103e934825461157e565b90556103f73460065461157e565b90816006557fd2dff949d20e874cc6ba1dcefb840fb8cf6000a4197bfb69accfea5a32443ff58151913483528360208401523392a2600554111561043d575b6001815580f35b61010061ff00196009541617600955610436565b600e5490680100000000000000008210156104a757508060016104779201600e55611386565b819291549060031b9133831b921b1916179055338252600f602052808220600160ff1982541617905538806103d4565b634e487b7160e01b855260419052602484fd5b606490602084519162461bcd60e51b8352820152601960248201527f43726561746f722063616e6e6f7420636f6e74726962757465000000000000006044820152fd5b6020608492519162461bcd60e51b8352820152602360248201527f436f6e747269627574696f6e206d75737420626520677265617465722074686160448201526206e20360ec1b6064820152fd5b6020606492519162461bcd60e51b8352820152601260248201527110d85b5c185a59db881a185cc8195b99195960721b6044820152fd5b6020606492519162461bcd60e51b8352820152601660248201527543616d706169676e206973206e6f742061637469766560501b6044820152fd5b919050346103655782600319360112610365576105d86115bf565b6105e660075442101561162e565b60ff60095460081c1661072b57338352602090600d825280842054156106f2573384526010825260ff81852054166106b857338452600d8252808420549260108352818520600160ff198254161790558480808087335af1610646611680565b501561067e5750907fa171b6942063c6f2800ce40a780edce37baa2b618571b11eedd1e69e626e7d7691519283523392a26001815580f35b82606492519162461bcd60e51b835282015260166024820152751499599d5b99081d1c985b9cd9995c8819985a5b195960521b6044820152fd5b5162461bcd60e51b81529182015260166024820152751499599d5b9908185b1c9958591e4818db185a5b595960521b604482015260649150fd5b5162461bcd60e51b8152918201526015602482015274139bc818dbdb9d1c9a589d5d1a5bdb88199bdd5b99605a1b604482015260649150fd5b906020606492519162461bcd60e51b8352820152601760248201527f43616d706169676e20776173207375636365737366756c0000000000000000006044820152fd5b5050346101945781600319360112610194576020906006549051908152f35b8284346101fd57806003193601126101fd5780600754804210610835575b5060055480158381156107e0575b505060a0945060065493600e54918151958652602086015284015260608301526080820152f35b90919350600654916064830292808404606414901517156108225761080f575060a094508290049185806107b9565b634e487b7160e01b815260128652602490fd5b634e487b7160e01b825260118752602482fd5b620151809150610846904290611673565b04846107ab565b90503461036557602036600319011261036557356001600160a01b0381169081900361036557818360ff92602095526010855220541690519015158152f35b505034610194578160031936011261019457602090600c549051908152f35b8284346101fd57806003193601126101fd57908051918290600e549182855260208095018093600e84527fbb7b4a454dc3493923482f07822329ed19e8244eff582cc204f8554c3620c3fd90845b818110610953575050508161090f910382611444565b83519485948186019282875251809352850193925b82811061093357505050500390f35b83516001600160a01b031685528695509381019392810192600101610924565b82546001600160a01b0316845292880192600192830192016108f9565b91905034610365578260031936011261036557805191838154906109938261140a565b80865292600192808416908115610a2c57506001146109d0575b6101e786866109be828b0383611444565b51918291602083526020830190611522565b815294507f8a35acfbc15ff81a39ae7d344fd709f28e8600b4aa8c65c6b64bfe7fe36bd19b5b828610610a14575050506109be8260206101e79582010194386109ad565b805460208787018101919091529095019481016109f6565b90506101e79750869350602092506109be94915060ff191682840152151560051b82010194386109ad565b9050346103655760208060031936011261036d57813592600192610a8860018060a01b03855460081c1633146115e2565b600a54851015610c1657848652600b835260ff8287205416610bd557848652600b83528186209060ff1991858382541617905584860190818711610bc25750600c55610ad3856113d3565b509282519481865287948054610ae88161140a565b9485858a01528382169182600014610b85575050600114610b2f575b88887f596b9dbf4a34a065b97919d952a438e69135615bbbe14d29df893d0ee0d78e488989038aa280f35b885281882093945087935b838510610b725750505050820101817f596b9dbf4a34a065b97919d952a438e69135615bbbe14d29df893d0ee0d78e48388080610b04565b8054878601870152938201938101610b3a565b168689015250505050151560051b8301019050817f596b9dbf4a34a065b97919d952a438e69135615bbbe14d29df893d0ee0d78e48388080610b04565b634e487b7160e01b885260119052602487fd5b82606492519162461bcd60e51b8352820152601b60248201527f4d696c6573746f6e6520616c726561647920636f6d706c6574656400000000006044820152fd5b82606492519162461bcd60e51b83528201526011602482015270496e76616c6964206d696c6573746f6e6560781b6044820152fd5b50503461019457816003193601126101945760207f62e78cea01bee320cd4e420270b5ea74000d11b0c9f74754ebdbfc544b05a2589160018054610c9a828060a01b038260081c1633146115e2565b610ca26115a1565b60ff19161760015551338152a180f35b50503461019457816003193601126101945780519082600354610cd48161140a565b80855291600191808316908115610d5d5750600114610d00575b5050506109be826101e7940383611444565b9450600385527fc2575a0e9e593c00f959f8c92f12db2869c3395a3b0502d05e2516446f71f85b5b828610610d45575050506109be8260206101e79582010194610cee565b80546020878701810191909152909501948101610d28565b6101e79750869350602092506109be94915060ff191682840152151560051b82010194610cee565b83915034610194578160031936011261019457600a549067ffffffffffffffff8211610e755750825191602092610dc1848460051b0182611444565b828152600a825283810192827fc65a7bb8d6351c1cf70c95a316cc6a92839c986682d98bc35f958f4883f9d2a8855b838310610e5157505050508451938085019181865251809252858501958260051b8601019392955b828710610e255785850386f35b909192938280610e41600193603f198a82030186528851611522565b9601920196019592919092610e18565b6001888192610e63859b98999b61147c565b81520192019201919096949396610df0565b634e487b7160e01b835260419052602482fd5b50503461019457816003193601126101945760209060ff6001541690519015158152f35b50503461019457816003193601126101945760209060ff60095460101c1690519015158152f35b50503461019457816003193601126101945780519082600254610ef58161140a565b80855291600191808316908115610d5d5750600114610f20575050506109be826101e7940383611444565b9450600285527f405787fa12a823e0f2b7631cc41b3ba8828b3321ca811111fa75cd3aa3bb5ace5b828610610f65575050506109be8260206101e79582010194610cee565b80546020878701810191909152909501948101610f48565b905034610365576020366003190112610365578160209360ff92358152600b855220541690519015158152f35b90503461036557602036600319011261036557356001600160a01b038116908190036103655782829160209452600d845220549051908152f35b9050346103655782600319360112610365576001549061101233600884901c6001600160a01b0316146115e2565b60ff821615611050575060ff1916600155513381527f5db9ee0a495bf2e6ff9c91a7834c1ba4fdd244a5e8aa4e537bd38aeae4b073aa90602090a180f35b8251638dfc202b60e01b8152fd5b905034610365576020366003190112610365573591600e548310156101fd5750611089602092611386565b905491519160018060a01b039160031b1c168152f35b5050346101945781600319360112610194576020906007549051908152f35b5050346101945781600319360112610194576020906005549051908152f35b5050346101945781600319360112610194576020906008549051908152f35b9190503461036557826003193601126103655760018060a01b03916111298360015460081c1633146115e2565b6111316115bf565b61113f60075442101561162e565b6009549260ff8460081c16156112b85760ff8460101c1661127d576006549384156112435762ff00ff1916620100001760095560085484810290858204036112305761271061119091048095611673565b9185808080868660015460081c165af16111a8611680565b50156111ed5750907ffbc3a599b784fe88772fc5abcc07223f64ca0b13acc341f4fb1e46bef0510eb4929160015460081c169382519182526020820152a26001815580f35b606490602085519162461bcd60e51b8352820152601a60248201527f5472616e7366657220746f2063726561746f72206661696c65640000000000006044820152fd5b634e487b7160e01b865260118352602486fd5b835162461bcd60e51b815260208185015260146024820152734e6f2066756e647320746f20776974686472617760601b6044820152606490fd5b506020606492519162461bcd60e51b83528201526015602482015274119d5b991cc8185b1c9958591e4818db185a5b5959605a1b6044820152fd5b506020606492519162461bcd60e51b8352820152601a60248201527f43616d706169676e20646964206e6f74206d65657420676f616c0000000000006044820152fd5b50503461019457816003193601126101945760209060ff6009541690519015158152f35b90503461036557602036600319011261036557356001600160a01b0381169081900361036557818360ff9260209552600f855220541690519015158152f35b84903461019457816003193601126101945760015460081c6001600160a01b03168152602090f35b600e548110156113bd57600e6000527fbb7b4a454dc3493923482f07822329ed19e8244eff582cc204f8554c3620c3fd0190600090565b634e487b7160e01b600052603260045260246000fd5b600a548110156113bd57600a6000527fc65a7bb8d6351c1cf70c95a316cc6a92839c986682d98bc35f958f4883f9d2a80190600090565b90600182811c9216801561143a575b602083101461142457565b634e487b7160e01b600052602260045260246000fd5b91607f1691611419565b90601f8019910116810190811067ffffffffffffffff82111761146657604052565b634e487b7160e01b600052604160045260246000fd5b90604051918260008254926114908461140a565b9081845260019485811690816000146114ff57506001146114bc575b50506114ba92500383611444565b565b9093915060005260209081600020936000915b8183106114e75750506114ba935082010138806114ac565b855488840185015294850194879450918301916114cf565b9150506114ba94506020925060ff191682840152151560051b82010138806114ac565b919082519283825260005b84811061154e575050826000602080949584010152601f8019910116010190565b60208183018101518483018201520161152d565b67ffffffffffffffff811161146657601f01601f191660200190565b9190820180921161158b57565b634e487b7160e01b600052601160045260246000fd5b60ff600154166115ad57565b60405163d93c066560e01b8152600490fd5b6002600054146115d0576002600055565b604051633ee5aeb560e01b8152600490fd5b156115e957565b60405162461bcd60e51b815260206004820152601a60248201527f4f6e6c792063726561746f722063616e2063616c6c20746869730000000000006044820152606490fd5b1561163557565b60405162461bcd60e51b815260206004820152601660248201527543616d706169676e207374696c6c206f6e676f696e6760501b6044820152606490fd5b9190820391821161158b57565b3d156116ab573d9061169182611562565b9161169f6040519384611444565b82523d6000602084013e565b60609056fea26469706673582212208cfc0a88374a3d23c2f5613815865c2e7ee22bb12d22ad46ebee7bb19ba94e3b64736f6c63430008140033405787fa12a823e0f2b7631cc41b3ba8828b3321ca811111fa75cd3aa3bb5ace",
  "linkReferences": {},
  "deployedLinkReferences": {}
}